{
    "contractName": "electricityBillingConcract",
    "abi": [
        {
            "inputs": [],
            "name": "BlockNumber",
            "outputs": [
                {
                    "internalType": "uint256",
                    "name": "",
                    "type": "uint256"
                }
            ],
            "stateMutability": "view",
            "type": "function"
        },
        {
            "inputs": [],
            "name": "NumberOfUser",
            "outputs": [
                {
                    "internalType": "uint256",
                    "name": "",
                    "type": "uint256"
                }
            ],
            "stateMutability": "view",
            "type": "function"
        },
        {
            "inputs": [],
            "name": "energyBillingProcesing",
            "outputs": [],
            "stateMutability": "nonpayable",
            "type": "function"
        },
        {
            "inputs": [
                {
                    "internalType": "uint256",
                    "name": "_SystemPriceTariffNumber",
                    "type": "uint256"
                },
                {
                    "internalType": "uint256",
                    "name": "_SystemPriceSell",
                    "type": "uint256"
                },
                {
                    "internalType": "uint256",
                    "name": "_SystemPriceBuy",
                    "type": "uint256"
                }
            ],
            "name": "modifaySystemPrice",
            "outputs": [],
            "stateMutability": "nonpayable",
            "type": "function"
        },
        {
            "inputs": [],
            "name": "ownEnergyDistributedOnLine",
            "outputs": [
                {
                    "internalType": "int256",
                    "name": "",
                    "type": "int256"
                }
            ],
            "stateMutability": "view",
            "type": "function"
        },
        {
            "inputs": [
                {
                    "internalType": "address",
                    "name": "_address",
                    "type": "address"
                }
            ],
            "name": "registrationNewUser",
            "outputs": [],
            "stateMutability": "nonpayable",
            "type": "function"
        },
        {
            "inputs": [
                {
                    "internalType": "uint256[]",
                    "name": "Wusr",
                    "type": "uint256[]"
                }
            ],
            "name": "userDataEnergy",
            "outputs": [],
            "stateMutability": "nonpayable",
            "type": "function"
        },
        {
            "inputs": [],
            "name": "userWallet",
            "outputs": [
                {
                    "internalType": "int256",
                    "name": "",
                    "type": "int256"
                },
                {
                    "internalType": "int256",
                    "name": "",
                    "type": "int256"
                }
            ],
            "stateMutability": "view",
            "type": "function"
        }
    ],
    "bytecode": "60806040526005600c55600460185560186019556006601a556016601b55600e601c55600e601d5534801561003357600080fd5b50610f4c806100436000396000f3fe608060405234801561001057600080fd5b50600436106100885760003560e01c80639054bc721161005b5780639054bc72146100d9578063bd07cf26146100ec578063e1feb886146100ff578063eed724291461011257610088565b80630b0885ad1461008d5780632ed2c12d146100a957806364868510146100b357806365965021146100bc575b600080fd5b610096600a5481565b6040519081526020015b60405180910390f35b6100b161011b565b005b61009660095481565b6100c4610562565b604080519283526020830191909152016100a0565b6100b16100e7366004610ca4565b6105b0565b6100b16100fa366004610c76565b610954565b6100b161010d366004610d64565b61096e565b61009660065481565b600a5467ffffffffffffffff81111561014457634e487b7160e01b600052604160045260246000fd5b60405190808252806020026020018201604052801561016d578160200160208202803683370190505b50805161018291600891602090910190610c16565b5060006013546016546015546101989190610dd0565b6101a29190610dd0565b905060006014546012546101b69190610dd0565b90506000806000806000806127109050600080601b546014546101d99190610e2a565b601d546012546101e99190610e2a565b6101f39190610dd0565b9550601a546015546102059190610e2a565b601c546016546013546102189190610dd0565b6102229190610e2a565b61022c9190610dd0565b9450888a101561028d576102408a8a610e88565b9350836019546102509190610e2a565b61025a9086610dd0565b97508496508360195461026d9190610e2a565b6005600082825461027e9190610e49565b909155505060068490556102e8565b610297898b610e88565b9350859750836018546102aa9190610e2a565b6102b49086610dd0565b9650836019546102c49190610e2a565b600560008282546102d59190610d8f565b909155506102e4905084610eba565b6006555b851561030a57826102f9878a610e16565b6103039190610e2a565b915061030f565b600091505b861561033157826103208689610e16565b61032a9190610e2a565b9050610335565b5060005b60005b600a5481101561055557836011828154811061036457634e487b7160e01b600052603260045260246000fd5b9060005260206000200154601c5461037c9190610e2a565b6010838154811061039d57634e487b7160e01b600052603260045260246000fd5b9060005260206000200154601a546103b59190610e2a565b600e84815481106103d657634e487b7160e01b600052603260045260246000fd5b9060005260206000200154601c546103ee9190610e2a565b6103f89190610dd0565b6104029190610dd0565b61040c9084610e2a565b600f838154811061042d57634e487b7160e01b600052603260045260246000fd5b9060005260206000200154601b54600d858154811061045c57634e487b7160e01b600052603260045260246000fd5b9060005260206000200154601d546104749190610e2a565b61047e9190610e2a565b6104889190610e2a565b6104929086610e2a565b61049b90610eba565b6104a59190610d8f565b6104af9190610de8565b600882815481106104d057634e487b7160e01b600052603260045260246000fd5b9060005260206000200181905550600881815481106104ff57634e487b7160e01b600052603260045260246000fd5b60009182526020808320909101548383528282526040808420546001600160a01b03168452600390925290822080549192909161053d908490610d8f565b9091555081905061054d81610e9f565b915050610338565b5050505050505050505050565b336000908152600360205260408120548190819061058490620186a090610de8565b33600090815260036020526040812054919250906105a5906103e890610de8565b919350909150509091565b3360009081526002602052604090205460ff16151560011415610948576009544311156105e7576105df61011b565b6105e76109ef565b8060008151811061060857634e487b7160e01b600052603260045260246000fd5b6020026020010151600d60016000336001600160a01b03166001600160a01b03168152602001908152602001600020548154811061065657634e487b7160e01b600052603260045260246000fd5b90600052602060002001819055508060018151811061068557634e487b7160e01b600052603260045260246000fd5b6020026020010151600e60016000336001600160a01b03166001600160a01b0316815260200190815260200160002054815481106106d357634e487b7160e01b600052603260045260246000fd5b90600052602060002001819055508060028151811061070257634e487b7160e01b600052603260045260246000fd5b6020026020010151600f60016000336001600160a01b03166001600160a01b03168152602001908152602001600020548154811061075057634e487b7160e01b600052603260045260246000fd5b90600052602060002001819055508060038151811061077f57634e487b7160e01b600052603260045260246000fd5b6020026020010151601060016000336001600160a01b03166001600160a01b0316815260200190815260200160002054815481106107cd57634e487b7160e01b600052603260045260246000fd5b9060005260206000200181905550806004815181106107fc57634e487b7160e01b600052603260045260246000fd5b6020026020010151601160016000336001600160a01b03166001600160a01b03168152602001908152602001600020548154811061084a57634e487b7160e01b600052603260045260246000fd5b90600052602060002001819055508060008151811061087957634e487b7160e01b600052603260045260246000fd5b6020026020010151601281905550806001815181106108a857634e487b7160e01b600052603260045260246000fd5b6020026020010151601381905550806002815181106108d757634e487b7160e01b600052603260045260246000fd5b60200260200101516014819055508060038151811061090657634e487b7160e01b600052603260045260246000fd5b60200260200101516015819055508060048151811061093557634e487b7160e01b600052603260045260246000fd5b6020026020010151601681905550610951565b61095133610954565b50565b336000908152600260205260408120805460ff1916905580fd5b601783905560198290556018819055600c5461098b906064610e88565b6019546109989190610e2a565b601b55600c546109a9906064610dd0565b6018546109b69190610e2a565b601a556018546019546002916109cb91610e88565b6109d59190610e16565b6018546109e29190610e88565b601d819055601c55505050565b600a5467ffffffffffffffff811115610a1857634e487b7160e01b600052604160045260246000fd5b604051908082528060200260200182016040528015610a41578160200160208202803683370190505b508051610a5691600d91602090910190610c16565b50600a5467ffffffffffffffff811115610a8057634e487b7160e01b600052604160045260246000fd5b604051908082528060200260200182016040528015610aa9578160200160208202803683370190505b508051610abe91600e91602090910190610c16565b50600a5467ffffffffffffffff811115610ae857634e487b7160e01b600052604160045260246000fd5b604051908082528060200260200182016040528015610b11578160200160208202803683370190505b508051610b2691600f91602090910190610c16565b50600a5467ffffffffffffffff811115610b5057634e487b7160e01b600052604160045260246000fd5b604051908082528060200260200182016040528015610b79578160200160208202803683370190505b508051610b8e91601091602090910190610c16565b50600a5467ffffffffffffffff811115610bb857634e487b7160e01b600052604160045260246000fd5b604051908082528060200260200182016040528015610be1578160200160208202803683370190505b508051610bf691601191602090910190610c16565b506000601281905560138190556014819055601581905560165543600955565b828054828255906000526020600020908101928215610c51579160200282015b82811115610c51578251825591602001919060010190610c36565b50610c5d929150610c61565b5090565b5b80821115610c5d5760008155600101610c62565b600060208284031215610c87578081fd5b81356001600160a01b0381168114610c9d578182fd5b9392505050565b60006020808385031215610cb6578182fd5b823567ffffffffffffffff80821115610ccd578384fd5b818501915085601f830112610ce0578384fd5b813581811115610cf257610cf2610f00565b8060051b604051601f19603f83011681018181108582111715610d1757610d17610f00565b604052828152858101935084860182860187018a1015610d35578788fd5b8795505b83861015610d57578035855260019590950194938601938601610d39565b5098975050505050505050565b600080600060608486031215610d78578182fd5b505081359360208301359350604090920135919050565b600080821280156001600160ff1b0384900385131615610db157610db1610ed4565b600160ff1b8390038412811615610dca57610dca610ed4565b50500190565b60008219821115610de357610de3610ed4565b500190565b600082610df757610df7610eea565b600160ff1b821460001984141615610e1157610e11610ed4565b500590565b600082610e2557610e25610eea565b500490565b6000816000190483118215151615610e4457610e44610ed4565b500290565b60008083128015600160ff1b850184121615610e6757610e67610ed4565b6001600160ff1b0384018313811615610e8257610e82610ed4565b50500390565b600082821015610e9a57610e9a610ed4565b500390565b6000600019821415610eb357610eb3610ed4565b5060010190565b6000600160ff1b821415610ed057610ed0610ed4565b0390565b634e487b7160e01b600052601160045260246000fd5b634e487b7160e01b600052601260045260246000fd5b634e487b7160e01b600052604160045260246000fdfea2646970667358221220a48fcd390e7301b06e3399e63159f2a2d202fb3d3f01b847eec500f9f376bfcd64736f6c63430008030033",
    "sourcePath": "/home/pi/EthStevec/SmartConcract/electricityBillingConcract.sol",
    "compiler": {
        "name": "solc",
        "version": "0.8.3+commit.8d00100c"
    },
    "functionHashes": {
        "BlockNumber()": "64868510",
        "NumberOfUser()": "0b0885ad",
        "energyBillingProcesing()": "2ed2c12d",
        "modifaySystemPrice(uint256,uint256,uint256)": "e1feb886",
        "ownEnergyDistributedOnLine()": "eed72429",
        "registrationNewUser(address)": "bd07cf26",
        "userDataEnergy(uint256[])": "9054bc72",
        "userWallet()": "65965021"
    },
    "gasEstimates": {
        "creation": {
            "codeDepositCost": "783200",
            "executionCost": "140860",
            "totalCost": "924060"
        },
        "external": {
            "BlockNumber()": "1029",
            "NumberOfUser()": "985",
            "energyBillingProcesing()": "infinite",
            "modifaySystemPrice(uint256,uint256,uint256)": "infinite",
            "ownEnergyDistributedOnLine()": "1050",
            "registrationNewUser(address)": "21169",
            "userDataEnergy(uint256[])": "infinite",
            "userWallet()": "infinite"
        },
        "internal": {
            "deletePreviousData()": "infinite"
        }
    }
}