{
    "contractName": "systemRegulationSmartConcract",
    "abi": [
        {
            "inputs": [],
            "name": "SystemNeedsEnergy",
            "outputs": [
                {
                    "internalType": "bool",
                    "name": "",
                    "type": "bool"
                }
            ],
            "stateMutability": "view",
            "type": "function"
        },
        {
            "inputs": [],
            "name": "SystemPriceTariffNumber",
            "outputs": [
                {
                    "internalType": "uint256",
                    "name": "",
                    "type": "uint256"
                }
            ],
            "stateMutability": "view",
            "type": "function"
        },
        {
            "inputs": [],
            "name": "SystemRuning",
            "outputs": [
                {
                    "internalType": "bool",
                    "name": "",
                    "type": "bool"
                }
            ],
            "stateMutability": "view",
            "type": "function"
        },
        {
            "inputs": [],
            "name": "getUserDataPower",
            "outputs": [
                {
                    "internalType": "uint256[3]",
                    "name": "",
                    "type": "uint256[3]"
                }
            ],
            "stateMutability": "view",
            "type": "function"
        },
        {
            "inputs": [
                {
                    "internalType": "uint256",
                    "name": "_SystemPriceTariffNumber",
                    "type": "uint256"
                }
            ],
            "name": "modifaySystemPriceTariffNumber",
            "outputs": [],
            "stateMutability": "nonpayable",
            "type": "function"
        },
        {
            "inputs": [
                {
                    "internalType": "bool",
                    "name": "_SystemRuning",
                    "type": "bool"
                }
            ],
            "name": "modifaySystemRunning",
            "outputs": [],
            "stateMutability": "nonpayable",
            "type": "function"
        },
        {
            "inputs": [
                {
                    "internalType": "address",
                    "name": "_address",
                    "type": "address"
                }
            ],
            "name": "registrationNewUser",
            "outputs": [],
            "stateMutability": "nonpayable",
            "type": "function"
        },
        {
            "inputs": [
                {
                    "internalType": "uint256[5]",
                    "name": "usrP",
                    "type": "uint256[5]"
                }
            ],
            "name": "setUserDataPower",
            "outputs": [],
            "stateMutability": "nonpayable",
            "type": "function"
        }
    ],
    "bytecode": "6080604052600060015561271060025561019060045534801561002157600080fd5b50610f0b806100316000396000f3fe608060405234801561001057600080fd5b50600436106100885760003560e01c806390b9bb861161005b57806390b9bb86146100ea578063ac1836fd14610107578063bd07cf261461012f578063d0bd67a41461014257610088565b80630b3d043d1461008d5780630d6e062b146100a25780631915ac9e146100c057806334ec925b146100d7575b600080fd5b6100a061009b366004610df2565b600555565b005b6100aa610154565b6040516100b79190610e0a565b60405180910390f35b6100c960055481565b6040519081526020016100b7565b6100a06100e5366004610d50565b61054a565b6006546100f79060ff1681565b60405190151581526020016100b7565b6100a0610115366004610dd2565b600680549115156101000261ff0019909216919091179055565b6100a061013d366004610d22565b6107fe565b6006546100f790610100900460ff1681565b61015c610c08565b6000610166610818565b600254815160125492935060009261017e9190610e73565b6101889190610e53565b60025460208401516013549293506000926101a39190610e73565b6101ad9190610e53565b90506000600254846002600381106101d557634e487b7160e01b600052603260045260246000fd5b60200201516014546101e79190610e73565b6101f19190610e53565b90506000826011546102039190610e3b565b9050600082846011546102169190610e3b565b6102209190610e3b565b60105490915060006102328783610e3b565b90506000806000808686111561031a576002546020808e015133600090815260089092526040822054600d80549397509192811061028057634e487b7160e01b600052603260045260246000fd5b90600052602060002001546102959190610e73565b61029f9190610e53565b600280549193508d905b6020020151600e60086000336001600160a01b03166001600160a01b0316815260200190815260200160002054815481106102f457634e487b7160e01b600052603260045260246000fd5b90600052602060002001546103099190610e73565b6103139190610e53565b9050610523565b878611156103be576002548a6103308a89610e92565b61033a9190610e53565b6103449190610e73565b600280549195506000945018848d60016020020151600d60086000336001600160a01b03166001600160a01b03168152602001908152602001600020548154811061039f57634e487b7160e01b600052603260045260246000fd5b90600052602060002001546103b49190610e73565b6102959190610e73565b87851115610467576002548b6103d48a88610e92565b6103de9190610e53565b6103e89190610e73565b600280548e5133600090815260086020526040902054600c80549599509290931893889391929190811061042c57634e487b7160e01b600052603260045260246000fd5b90600052602060002001546104419190610e73565b61044b9190610e73565b6104559190610e53565b60028054919450600093508d906102a9565b6002548c5133600090815260086020526040902054600c8054909190811061049f57634e487b7160e01b600052603260045260246000fd5b90600052602060002001546104b49190610e73565b6104be9190610e53565b6002546040808f0151336000908152600860205291822054600e80549598509296509293909290811061050157634e487b7160e01b600052603260045260246000fd5b90600052602060002001546105169190610e73565b6105209190610e53565b90505b60408051606081018252938452602084019290925290820152995050505050505050505090565b3360009081526009602052604090205460ff161515600114156107f25760015443111561057d574360015561057d61097d565b33600090815260086020526040902054600f805490919081106105b057634e487b7160e01b600052603260045260246000fd5b60009182526020918290209181049091015460ff601f9092166101000a9004166107ed57805133600090815260086020526040902054600a8054909190811061060957634e487b7160e01b600052603260045260246000fd5b60009182526020808320909101929092558282015133825260089092526040902054600b8054909190811061064e57634e487b7160e01b600052603260045260246000fd5b60009182526020808320909101929092556040808401513383526008909352902054600c8054909190811061069357634e487b7160e01b600052603260045260246000fd5b6000918252602080832090910192909255606083015133825260089092526040902054600d805490919081106106d957634e487b7160e01b600052603260045260246000fd5b6000918252602080832090910192909255608083015133825260089092526040902054600e8054909190811061071f57634e487b7160e01b600052603260045260246000fd5b600091825260208220019190915581516010805491929091610742908490610e3b565b909155505060208101516011805460009061075e908490610e3b565b909155505060408101516012805460009061077a908490610e3b565b9091555050606081015160138054600090610796908490610e3b565b90915550506080810151601480546000906107b2908490610e3b565b90915550506014546011546107c79190610e3b565b60105410156107e2576006805460ff191660011790556107ed565b6006805460ff191690555b6107fb565b6107fb336107fe565b50565b336000908152600960205260408120805460ff1916905580fd5b610820610c08565b60008060006014546013546011546108389190610e3b565b6108429190610e3b565b6004541115610856575050600254806108fa565b6014546011546108669190610e3b565b60045411156108b2576013546014546011546108829190610e3b565b60045461088f9190610e92565b60025461089c9190610e73565b6108a69190610e53565b915060025490506108fa565b60115460045411156108f357600091506014546011546004546108d59190610e92565b6002546108e29190610e73565b6108ec9190610e53565b90506108fa565b5060009050805b60125460105461090a9190610e3b565b600454111561091d57600254925061095f565b601054600454111561095a5760125460105460045461093c9190610e92565b6002546109499190610e73565b6109539190610e53565b925061095f565b600092505b60408051606081018252938452602084019290925290820152905090565b60005467ffffffffffffffff8111156109a657634e487b7160e01b600052604160045260246000fd5b6040519080825280602002602001820160405280156109cf578160200160208202803683370190505b5080516109e491600a91602090910190610c26565b5060005467ffffffffffffffff811115610a0e57634e487b7160e01b600052604160045260246000fd5b604051908082528060200260200182016040528015610a37578160200160208202803683370190505b508051610a4c91600b91602090910190610c26565b5060005467ffffffffffffffff811115610a7657634e487b7160e01b600052604160045260246000fd5b604051908082528060200260200182016040528015610a9f578160200160208202803683370190505b508051610ab491600c91602090910190610c26565b5060005467ffffffffffffffff811115610ade57634e487b7160e01b600052604160045260246000fd5b604051908082528060200260200182016040528015610b07578160200160208202803683370190505b508051610b1c91600d91602090910190610c26565b5060005467ffffffffffffffff811115610b4657634e487b7160e01b600052604160045260246000fd5b604051908082528060200260200182016040528015610b6f578160200160208202803683370190505b508051610b8491600e91602090910190610c26565b5060005467ffffffffffffffff811115610bae57634e487b7160e01b600052604160045260246000fd5b604051908082528060200260200182016040528015610bd7578160200160208202803683370190505b508051610bec91600f91602090910190610c71565b5060006010819055601181905560128190556013819055601455565b60405180606001604052806003906020820280368337509192915050565b828054828255906000526020600020908101928215610c61579160200282015b82811115610c61578251825591602001919060010190610c46565b50610c6d929150610d0d565b5090565b82805482825590600052602060002090601f01602090048101928215610c615791602002820160005b83821115610cd757835183826101000a81548160ff0219169083151502179055509260200192600101602081600001049283019260010302610c9a565b8015610d045782816101000a81549060ff0219169055600101602081600001049283019260010302610cd7565b5050610c6d9291505b5b80821115610c6d5760008155600101610d0e565b600060208284031215610d33578081fd5b81356001600160a01b0381168114610d49578182fd5b9392505050565b600060a08284031215610d61578081fd5b82601f830112610d6f578081fd5b60405160a0810181811067ffffffffffffffff82111715610d9257610d92610ebf565b604052808360a08101861015610da6578384fd5b835b6005811015610dc7578135835260209283019290910190600101610da8565b509195945050505050565b600060208284031215610de3578081fd5b81358015158114610d49578182fd5b600060208284031215610e03578081fd5b5035919050565b60608101818360005b6003811015610e32578151835260209283019290910190600101610e13565b50505092915050565b60008219821115610e4e57610e4e610ea9565b500190565b600082610e6e57634e487b7160e01b81526012600452602481fd5b500490565b6000816000190483118215151615610e8d57610e8d610ea9565b500290565b600082821015610ea457610ea4610ea9565b500390565b634e487b7160e01b600052601160045260246000fd5b634e487b7160e01b600052604160045260246000fdfea2646970667358221220845a811941b6dc9d915a13f6be6324e65c668cdb80854384b1438e7061fd156364736f6c63430008030033",
    "sourcePath": "/home/pi/EthStevec/SmartConcract/systemControlingConcract.sol",
    "compiler": {
        "name": "solc",
        "version": "0.8.3+commit.8d00100c"
    },
    "functionHashes": {
        "SystemNeedsEnergy()": "90b9bb86",
        "SystemPriceTariffNumber()": "1915ac9e",
        "SystemRuning()": "d0bd67a4",
        "getUserDataPower()": "0d6e062b",
        "modifaySystemPriceTariffNumber(uint256)": "0b3d043d",
        "modifaySystemRunning(bool)": "ac1836fd",
        "registrationNewUser(address)": "bd07cf26",
        "setUserDataPower(uint256[5])": "34ec925b"
    },
    "gasEstimates": {
        "creation": {
            "codeDepositCost": "770200",
            "executionCost": "45823",
            "totalCost": "816023"
        },
        "external": {
            "SystemNeedsEnergy()": "1010",
            "SystemPriceTariffNumber()": "1040",
            "SystemRuning()": "1087",
            "getUserDataPower()": "infinite",
            "modifaySystemPriceTariffNumber(uint256)": "20213",
            "modifaySystemRunning(bool)": "21118",
            "registrationNewUser(address)": "21191",
            "setUserDataPower(uint256[5])": "infinite"
        },
        "internal": {
            "checkMaxPowerOfSystem()": "infinite",
            "deletePreviousData()": "infinite"
        }
    }
}